:020000040800F2
:10000000580C0020ED0100081D3E0008F9390008D9
:10001000193E0008E51000086D44000800000000CB
:10002000000000000000000000000000494300083C
:10003000CD13000800000000213E00084D430008D9
:10004000070200080702000807020008070200086C
:10005000070200080702000807020008D113000881
:10006000070200080702000807020008070200084C
:10007000070200080702000807020008070200083C
:10008000070200080702000807020008070200082C
:10009000070200080702000807020008070200081C
:1000A000070200080702000807020008070200080C
:1000B00007020008070200080702000807020008FC
:1000C00007020008070200080702000807020008EC
:1000D0000702000861440008070200080702000840
:1000E00007020008070200080702000800F002F8F3
:1000F00000F06CF814A696E8000CB244B344DA455C
:1001000001D100F063F8BAE80F000FA696E83000BE
:10011000A5EB040504EB0607AAEB0704A7F101070A
:100120004FEA15154FEA3414A4F10104AC4201D38F
:1001300000F04CF813F0010F18BFFB1A43F0010355
:1001400000F001F8DBE71847346B0000546B000047
:10015000103A24BF78C878C1FAD8520724BF30C8F3
:1001600030C144BF04680C60704700007047000055
:100170000023002400250026103A28BF78C1FBD8B0
:10018000520728BF30C148BF0B607047662906F090
:100190007280642900F0AC80752900F0A980732971
:1001A00000F04085002070471FB500F09DFA040064
:1001B0000020002105F036FD401C60600020002179
:1001C00005F046FDE0601FBD10B510BD00F0FCFE5F
:1001D0001146FFF7E9FF04F04BF900F01AFF03B4F2
:1001E000FFF7F2FF03BC00F01DFF00000948804745
:1001F00009480047FEE7FEE7FEE7FEE7FEE7FEE709
:10020000FEE7FEE7FEE7FEE704480549054A064B20
:100210007047000051430008ED0000085806002018
:10022000580C0020580800205808002010B500F095
:100230005BFA001D10BD00BFED59000010B504466B
:10024000FFF7F4FF0068005D000704D5DF2C02D043
:10025000A4F1200010BD204610BD00000FB41CB555
:100260000C0007AA009007D04142A14202D32044CB
:10027000401E01E04FF0FF30074B7B446946019080
:10028000069800F0A2FC0021002C01D0009A117009
:100290001CBC5DF814FB00007309000070B50C462F
:1002A0000546012A05D02878800600D5EA69002392
:1002B00002E0012305E05B1C934202D2E05C0028CF
:1002C000F9D1A869E618C01AA861286A18442862FA
:1002D0002846AFF3008004E0D5E9012114F8010BB2
:1002E0009047B442F8D32846AFF3008070BD0000B9
:1002F0002DE9F0410646002410687529314616A5FF
:1003000010D0AFF30080002802DA404213A507E0C6
:1003100031688A0701D512A502E0490704D511A565
:10032000012401E0AFF3008000210A2206F1240736
:1003300009E0B0FBF2FCB0FBF2F302FB1C00303032
:1003400078541846491C0028F3D123462A463046E3
:10035000BDE8F04100F0CCB9000000002D00000025
:100360002B000000200000002DE9F0474FF0000AAC
:1003700089460446C0F820A02046E1688847002846
:1003800076D0252806D0D4E901219047206A401C68
:100390002062F1E7E168204600268847C4F81CA0E7
:1003A00005460027C4F818A02A2D09D0284605F0D4
:1003B00031FC38B304EB8708303DC8F8185019E019
:1003C00059F8041B204604EB87029161E1688847D5
:1003D000012F054618D1E069002820DA26F0200612
:1003E0001DE0D8F8180000EB800005EB4000303825
:1003F000C8F818002046E1688847054605F00AFC61
:100400000028EED1012F0AD02E2D08D12046E16818
:1004100088477F1C0546022F46F02006C4DBA069F2
:10042000002803DA404246F00106A061F00701D03F
:1004300026F010066C2D0AD0682D08D04C2D39D02E
:100440006A2D35D0742D35D07A2D33D016E0E16881
:100450002F4620468847B84205460AD16C2F27D040
:100460004FF48060E168064320468847054605E072
:1004700027E06C2F1AD04FF4807006430DB3A5F11E
:100480004100192802D8203546F400664A4629461C
:10049000204626604E46FFF779FE80B101280BD03A
:1004A000F61D26F0070000F1080965E74020E4E7A3
:1004B0008020D7E70020D5E706F104095CE728464D
:1004C00061E7206ABDE8F08740EA010310B59B07A9
:1004D0000FD1042A0DD310C808C9121F9C42F8D0AE
:1004E00020BA19BA884201D9012010BD4FF0FF305F
:1004F00010BD1AB1D30703D0521C07E0002010BD75
:1005000010F8013B11F8014B1B1B07D110F8013B00
:1005100011F8014B1B1B01D1921EF1D1184610BDE1
:10052000032A40F2308010F0030C00F0158011F81F
:10053000013BBCF1020F624498BF11F801CB00F8F7
:10054000013B38BF11F8013BA2F1040298BF00F84B
:1005500001CB38BF00F8013B11F0030300F06683C4
:10056000083AC0F0088051F8043B083A51F804CB2F
:10057000A0E80810F5E7121D5CBF51F8043B40F8F5
:10058000043BAFF30080D20724BF11F8013B11F800
:1005900001CB48BF11F8012B24BF00F8013B00F844
:1005A00001CB48BF00F8012B7047431A28BF9A427D
:1005B0007FF6B6AF10441144032A40F2268010F0B3
:1005C000030F1EBF11F8013D521E00F8013D10F04F
:1005D000030F7FF4F6AF11F0030300F06C83083AC9
:1005E000C0F00B8051F8043D083A51F804CD40F8B2
:1005F000043D40F804CDFFF7F3BF121D5CBF51F876
:10060000043D40F8043DAFF30080D20724BF11F849
:10061000013D11F801CD48BF11F8012C24BF00F8AD
:10062000013D00F801CD48BF00F8012C704702F0F1
:10063000FF0343EA032242EA024200F002B84FF00D
:10064000000200B5134694469646203922BFA0E822
:100650000C50A0E80C50B1F12001BFF4F7AF09072E
:1006600028BFA0E80C5048BF0CC05DF804EB89001F
:1006700028BF40F8042B08BF704748BF20F8022B62
:1006800011F0804F18BF00F8012B704710B50446D9
:1006900010F0030F08BF11F0030F40F015804FF06A
:1006A000013E121FC0F20E8051F8043BA3EB0E0C6A
:1006B0002CEA030C1CEACE1C08BF40F8043BF0D027
:1006C000A1F1040102F10402521E08DB11F8013B02
:1006D00000F8013B002BF7D1114600F016FB204635
:1006E00010BD7047704770470048704738000020C1
:1006F0002DE9F0470D4699469246044600F124083C
:100700000168880604D5E06921F01001216000E04D
:100710000120A84201DD471B00E00027A1697A19EA
:1007200002EB0900081AA0612078C00602D4204616
:10073000AFF30080002608E0D4E901211AF8060092
:100740009047206A401C761C20624E45F4DB2078DE
:10075000C0060AD52046AFF3008006E0D4E90121A7
:1007600030209047206A401C2062381EA7F1010704
:10077000F4DC07E0D4E9012118F805009047206A6D
:10078000401C2062281EA5F10105F3DC2046AFF3D2
:1007900000802078000602D50220BDE8F087012005
:1007A000FBE72DE9FF4F0C461E464FF0FF378BB09D
:1007B000D2E90001DDF860800A908A46C1F30A554B
:1007C00005B93D46002108464FF00000BAF1000F80
:1007D00000F4400005DA00EB80004FF4400101EA2C
:1007E00050004FEA9059B9F1010F00DDB9460A985F
:1007F00050EA4A000ED044F61050A5F2FF354543AA
:100800002F14B8F1000F1ED07542291E1EDDC9F14C
:1008100000021CE0B8F1010F4FF0000001D03021C0
:1008200003E0F24305E02154401CB042FBDB3046BC
:100830000022002121540B99C1F80880C1E9002051
:100840000FB0BDE8F08FBD1B6D1CDEE74A4600DA35
:10085000694206A800F006FB06AB93E8070003AB6D
:1008600083E8070050460A9904F0F8FD8DE8070078
:10087000A0F500501F3800900398002D0ADD42F2C9
:100880001F014A460844002303A90390684605F067
:1008900061F809E0A0F500504A461F38002303A97B
:1008A0000390684605F06BF88DE807000004000C23
:1008B00003D04FF0FF30410800E01046B8F1000FC0
:1008C00003D00022009215461EE0751E05D400F0EC
:1008D00043FA303262556D1EF9D5B3460122084302
:1008E00002D000227F1C04E02078302801D10022B1
:1008F0007F1E002A099784D01DE0112D07DA00F031
:100900002BFA303262556D1C50EA0102F5D10843D2
:1009100002D00098C8B10EE00021681E05E0235CFB
:10092000625C63542254401E491C8142F7DBAB4693
:10093000A81B401E0990002004F80B000B98099A90
:10094000C0F80880C0E9002B7AE711264FF00008B4
:1009500057E72DE9F04F88460446D21D22F00701E3
:1009600091B0D1E90001CDE90A0105F03FF9024655
:100970000B98C00F01D02D2007E02068810701D51A
:100980002B2002E0202101EAC000032A099001D0B7
:10099000072A05DB03464146204600F023FA0BE117
:1009A0002078800601D5E06900E00620B8F1650FE7
:1009B000814606D0B8F1660F18D0B8F1670F70D134
:1009C00031E00020B9F1110F009001DB112301E0AB
:1009D00009F101030AAA01A90CA8FFF7E2FEDDE96B
:1009E0000C70002609F10105834647E001204B46C3
:1009F00000904FF000470AAA01A90CA8FFF7D1FE0A
:100A0000DDE90DB00C995D46002610B909F1010031
:100A10000D18B9EB050003D4C0F1FF3609F101054B
:100A2000A5EB09002BE0B9F1010F01DA4FF0010944
:100A30000020B9F1110F0090484601DD112300E0BC
:100A400003460AAA01A90CA8FFF7ABFEDDE90C706A
:100A50004D4600268346207800070AD4AB4500DACD
:100A60005D4601A8012D04DD411911F8011C302952
:100A700007D04F4502DA17F1040F04DA012082464D
:100A80000FE06D1EEEE7002F02DCED1B3E4403E09D
:100A9000781CA84200DD7D1CB81B00F1010A4FF054
:100AA00000472078000703D4AA4501DB4FF0FF3A46
:100AB0000021B7F1004F0DF143088DF8431024D009
:100AC00002202B23002F01DA7F422D230A21021E50
:100AD000A0F1010000DC5FB197FBF1FC97FBF1F2A4
:100AE00001FB1C7C17460CF1300C08F801CDEEE739
:100AF000A8F1010003702188090501D5452100E016
:100B00006521A0F1010800F8011C09980FA9A1EBCB
:100B10000807FF1D00B10120411901EBEA70A1692E
:100B20003844081A401EA0612078C00602D420462E
:100B3000AFF30080099828B1D4E901219047206AD9
:100B4000401C20622078C00622D52046AFF30080EA
:100B50001EE0002E04DBB34502DD01A8805D00E04D
:100B60003020D4E901219047206A401C2062761C85
:100B7000AAF101005FEA000A0AD1FFF7B5FDC068DB
:100B80000168405CD4E901219047206A401C206242
:100B9000281EA5F10105DCDC07E0D4E9012118F8E5
:100BA000010B9047206A401C2062381EA7F1010704
:100BB000F3DC2046AFF30080032011B041E60000D3
:100BC00001694A1C02610878704700B58FB0CDE911
:100BD00001310021059105497944CDE90310114601
:100BE0006846FFF7C1FB0FB000BD0000E5FFFFFF47
:100BF000D1E900239A4202D2531C0B601070704757
:100C000010B5436913B1AFF3008001E0FFF746FB75
:100C1000012010BD127800F124010A7000224A70F0
:100C20000122EDE711684FF0FF32E9E710B5203AF5
:100C3000C0F00B80B1E81850A0E81850B1E8185087
:100C4000A0E81850203ABFF4F5AF5FEA027C24BF59
:100C5000B1E81850A0E8185044BF18C918C0BDE842
:100C600010405FEA827C24BF51F8043B40F8043B0B
:100C700008BF7047D20728BF31F8023B48BF11F8C0
:100C8000012B28BF20F8023B48BF00F8012B70471A
:100C9000431A28BF9A427FF6C9AF1044114410F09E
:100CA000030F1EBF11F8013D521E00F8013D10F068
:100CB000030F7FF4F6AF103AC0F00A8010B531E9A7
:100CC000185020E91850103ABFF4F9AFBDE81040B1
:100CD000530724BF31E9081020E9081044BF51F838
:100CE000043D40F8043D12F0030F08BF7047D207DF
:100CF00028BF31F8023D48BF11F8012C28BF20F869
:100D0000023D48BF00F8012C70474FF00002042953
:100D1000C0F0128010F0030C3FF493ACCCF1040C43
:100D2000BCF1020F18BF00F8012BA8BF20F8022B5E
:100D3000A1EB0C01FFF785BC5FEAC17C24BF00F882
:100D4000012B00F8012B48BF00F8012B7047000071
:100D5000004870471800002030B5B0F10A0271F168
:100D600000034FEA900E4EEA817EB0EB0E0061EB7D
:100D700091014FEA101E4EEA017E10EB0E0041EB8E
:100D800011114FEA102E4EEA016E10EB0E0041EBEE
:100D900011214FEA104E4EEA014E10EB0E0041EBCE
:100DA0001141401841F100014FEAD00040EA417082
:100DB0004FEAD1014FEA810444EA907410EB8005B8
:100DC00044EB01046D1944EB0404521BA3414FF0A2
:100DD000000348BF0A3200D530BD401C41F100017C
:100DE00030BD00002DE9F0411F460446032601688E
:100DF000072A01F4006004DB08B116A505E016A57A
:100E000003E008B115A500E015A521F01000206051
:100E1000A069C01EA0610FB1401EA0612046AFF3C3
:100E200000804FB1D4E9012138469047206A401C28
:100E30002062C01C206206E0206AFAE7D4E90121A2
:100E400015F8010B9047761EF8D22046AFF30080CC
:100E5000BDE8F0814E414E006E616E00494E460085
:100E6000696E66002DE9F047814616468AB035481E
:100E700078440DC88DE80D0032487844801C03ACDE
:100E80000DC884E80D0041F69B300844372190FBE3
:100E9000F1F290FBF1F5A5F1800501FB12041B3C7A
:100EA00002D56442012000E00020DFF898A08046CF
:100EB0000027FA44AAF1BE0A0EE0E0070AD0324643
:100EC000684607EB470101230AEB810104F057FD57
:100ED0008DE8070064107F1C002CEED1194F7F4471
:100EE000AE3F19E0E80715D007EB04100DF1180A22
:100EF00090E80E008AE80E00C068F04201D198190F
:100F000008903246012306A903A804F038FD03AB7C
:100F100083E807006D10641C002DE3D14FF001033E
:100F200032466946B8F1000F03A802D004F012FD62
:100F300001E004F024FDC9E90001C9F808200AB065
:100F4000BDE8F087845400004FF0013C50F8042BBA
:100F500051F8043B9A4221D1A2EB0C03934313EACC
:100F6000CC1317D150F8042B51F8043B9A4215D1F9
:100F7000A2EB0C03934313EACC130BD150F8042BD0
:100F800051F8043B9A4209D1A2EB0C03934313EAB4
:100F9000CC13DBD04FF00000704700BFD01A01BA6D
:100FA000B1FA81F101F0180122FA01F0CB40DBB275
:100FB000C0B2C01AC1F120012CFA01F3D11A914339
:100FC00011EAC311E6D170477546FFF7C1FEAE4680
:100FD00005006946534620F00700854618B020B545
:100FE000FFF712F9BDE820404FF000064FF0000770
:100FF0004FF000084FF0000BAC46ACE8C009ACE87D
:10100000C009ACE8C009ACE8C00921F007018D4671
:10101000704710B50446AFF300802046BDE810408D
:10102000FFF7DDB801491820ABBEFEE7260002003D
:1010300070470000B0B582B00446002001902168DE
:101040008A68D2074BD1886840F00100886040F27E
:101050001000C2F2000000684DF68361C4F21B313B
:10106000A0FB0101880C01900198A0B10198013802
:101070000190019878B1019801380190019850B120
:10108000019801380190019828B101980138019028
:1010900001980028EAD100F0C1FE21688968C907DB
:1010A0001CD1054603E000BF8068C00716D100F0E0
:1010B000B5FE411B20680329F6D38168C907F3D127
:1010C000A06A40F01000A062E06A40F00100E06217
:1010D000002084F82400012002B0B0BD002002B03E
:1010E000B0BD0000FEE700002DE9F04F87B0834659
:1010F00040F6004600208846C4F201068DF818002C
:101100000590012103900220CDE90111049001A96D
:10111000304600F06FFD30460121002200F078FEDD
:10112000142000F03DFD30460121012200F070FE48
:1011300040F2C057C2F2000797F83D0018B197F887
:101140003D00012805D140F2C050C2F2000001F07C
:1011500081FE386800214162416A1D2908D8416A30
:101160001D2905D8416A1D2902D8416A1E29F3D3D9
:1011700001200024039001A93046029400F03AFDBA
:101180003046012100F03EFEE0B1C82505E000BF79
:101190003046012100F036FEA0B1013D280400F0E8
:1011A000C9803868446200BF416A0029F0D1416AB1
:1011B0000029EDD1416A0029EAD1416A0029F3D022
:1011C000E6E700BF3046012100F01CFE012840F098
:1011D00093803046012100F015FEE8B1C8240025B7
:1011E00005E000BF3046012100F00CFEA0B1013C3B
:1011F000200400F0AF803868456200BF416A0029D2
:10120000F0D1416A0029EDD1416A0029EAD1416A51
:101210000029F3D0E6E700BFCDF8008000240DF1EF
:1012200014084FF000093046012100F0EBFD0128C1
:1012300046D13868446200BF416A272908D8416A0C
:10124000272905D8416A272902D8416A2829F3D3DA
:101250004FEAD90518F8050001214FEA400A304647
:1012600008F805A000F0CEFD012804BF4AF00100F7
:1012700008F805003046012100F0C4FDD0B1C825B2
:1012800005E000BF3046012100F0BCFD90B1013DFA
:1012900028045BD038684462416A0029F2D1416A6F
:1012A0000029EFD1416A0029ECD1416A0029F3D02D
:1012B000E8E700BF09F10109B9F1280FB3D14DE00A
:1012C000C82505E03046012100F09CFD0128B0D082
:1012D000013D280432D03868446200BF416A0029C9
:1012E000F0D1416A0029EDD1416A0029EAD1416A71
:1012F0000029F3D0E6E700BFC824002507E000BFBF
:101300003046012100F07EFD01283FF462AF013C30
:10131000200417D038684562416A0029F0D1416A3B
:101320000029EDD1416A0029EAD1416A0029F3D0B0
:10133000E6E700BF032007B0BDE8F08F062007B046
:10134000BDE8F08F042007B0BDE8F08F072007B09C
:10135000BDE8F08F052007B0BDE8F08F9DF81400C0
:101360009DF815609DF816709DF8178032183A4464
:101370009DF818104244D2B2914223D104F03EFEAF
:101380008146304604F03AFE0026C4F2201631466B
:1013900004F03EFD494604F0A3FCCBF800003846BB
:1013A00004F02CFE0546404604F028FE314604F0C9
:1013B0002FFD294604F094FC00990860002007B036
:1013C000BDE8F08F022007B0BDE8F08F7047000045
:1013D000022000F003BC000070B581B00022009232
:1013E00090F82420012A03D10221084601B070BDE3
:1013F0004A680123062A02EB820E80F8243007D8BF
:10140000D0F800C06FF004030CF134060CE000BF0C
:10141000D0F800C00C2A87BF0CF12C066FF04003F7
:101420000CF130066FF022030EEB03021F23346829
:1014300003FA02F50B6824EA050503FA02F22A43CF
:101440003260092B03EB43021AD9DCF80C601E3A18
:10145000072589689540AE43914023F0010231434E
:10146000102ACCF80C1015D142F20041C4F201014F
:101470008C4517D0816A41F02001816201210AE088
:10148000DCF81030072689689640B3439140194331
:10149000CCF810100021002280F82420084601B06A
:1014A00070BD00BF89680902F4D4DCF80810102B65
:1014B00041F40001CCF80810ECD140F21001C2F266
:1014C000000109684DF68362C4F21B32A1FB0212CF
:1014D000910C01EB81014900009100990029D9D0BC
:1014E00000990139009100990029D3D00099013960
:1014F000009100990029CDD00099013900910099FF
:101500000029C7D0009901390091009900294FF0B6
:101510000001E5D1BFE700000068C06C7047000023
:10152000002804BF01207047B0B50446806A28B186
:1015300021688868C0070CD115E000BF0020E06278
:1015400084F82400204600F097F821688868C007D6
:1015500009D0886820F00100886000F05FFC2168F5
:101560008A68D20726D1A06AC0063AD4A06A41F29E
:10157000021290430230A062E069D4E9013240EAED
:10158000030C531EB3FA83F35D091346B2F5807F53
:1015900018BF2B02207D257B01284CEA45002CD169
:1015A00035B3A56A45F02005A562E56A45F0010559
:1015B000E56222E0054602E08868C007D3D000F06B
:1015C0002DFC401B21680328F6D38868C007F3D0A0
:1015D000A06A40F01000A062E06A40F00100E06202
:1015E000A06AA06A40F01000A0620120B0BD00BF58
:1015F000A56903EB4533A3F5C0534D68B2F5807F71
:1016000025F4694543EA05034B608B684FF2FD758D
:10161000CFF6E17503EA050343EA00038B6001D0CE
:10162000012A07D122690023CFF6F07303EB02529F
:1016300001E000BF0022CB6A23F470031A43CA62A0
:10164000896840F6FE62CFF61F721140814207D1D1
:101650000020E062A16A012262F30101A162B0BD33
:10166000A06A40F0100020F00200A062E06A40F0A2
:101670000100E0620120B0BD80B586B0014640F6B1
:101680000000C4F20100096800F5E05291424FF0F9
:101690000001CDE90411CDE9021101D006B080BDF1
:1016A00041F21801C4F202010A6842F400720A60B1
:1016B0000A6802F400720192019A0A6842F0040278
:1016C0000A60096801F00401019101990121029168
:1016D0000321039102A900F08DFA06B080BD00003D
:1016E0002DE9F04182B000270D460446019700F035
:1016F00095FB21688A68D20544D406464868C0052F
:1017000003D4C86A10F4700F46D040F21000C2F241
:101710000000076842F292480220C1F2492800F016
:1017200019FF216844F624130A69B7FBF0F0C2F2EE
:1017300092431A4206D1CA6844F62413C0F29203B7
:101740001A425BD00A6912EA080F07D1CA6842F24E
:101750009243C0F249031A4200F0C0800A6949F27C
:101760004923C0F224031A424FF0FC0254D1CF683F
:101770001F4208BF5422019B02FB00F7BB4250D31B
:10178000C3E000BFA06A40F02000A06284F824708B
:10179000012002B0BDE8F0810868800700F1B58043
:1017A000681C00F0A880FDB90868800770D508683B
:1017B000800700F1AA800868800769D5086880075B
:1017C00000F1A3800868800762D50868800700F1EF
:1017D0009C80086880075BD508688007E4D594E0A2
:1017E0000868800700F1918000F018FB801B2168D9
:1017F000A842F5D908688007F2D449E00A6912EADC
:10180000080F4FF0290207D1CB6842F29247C0F28D
:1018100049073B4208BF1422019B02FB00F7BB4271
:1018200073D2681C52D05DBB0198B84230D3019886
:10183000013001900198B84267D20198B84227D38D
:101840000198013001900198B8425ED20198B842E7
:101850001ED30198013001900198B84255D20198E9
:10186000B84215D30198013001900198B842DBD3FA
:101870004BE000BF0198013001900198B84235D289
:1018800000F0CCFA801BA842F4D90198B842F1D2FA
:10189000A06A40F00400A062002084F82400032025
:1018A00002B0BDE8F08100BF0198013001900198BD
:1018B000B8422AD20198013001900198B84224D24E
:1018C0000198013001900198B8421ED20198013070
:1018D00001900198B842E7D317E000BF5422019B62
:1018E00002FB00F7BB429CD30FE000BF21680CE075
:1018F0000868800709D40868800706D4086880074C
:101900005CBF08685FEA8070F2D56FF01200086073
:10191000A06A40F40070A062886800F46020B0F50E
:10192000602F01D1207B18B1002002B0BDE8F0810A
:10193000A06A20F48070A062A06AC004F4D4A06AF7
:1019400040F00100A062002002B0BDE8F08100007C
:1019500010B5044690F82400012804BF022010BDF1
:10196000012084F824002046FFF764FB20B100200A
:1019700084F82400012010BD42F2044C2068A16AC2
:10198000C4F2010C40F2013291430CF57F7201F573
:1019900080719042A16229D0A16A21F48011A162D4
:1019A0004168490504D5A16A012363F30D31A162A1
:1019B000A16A0023C9044FF0000144BFE16A21F08D
:1019C0000601E1626FF0020184F824300160816851
:1019D00001F46021B1F5602F1BD1904214D08168D1
:1019E00041F4A0018160002010BD00BFDCF80010B0
:1019F00011F4702FD0D0A16A41F48011A162DCF8FB
:101A000000104905CFD4D3E7DCF8001011F4702F93
:101A1000E5D0816841F480118160002010BD000094
:101A2000B0B5044690F82400012804BF0220B0BDE0
:101A30000121206884F824108168C90709D08168D1
:101A400021F00101816000F0E9F921688968C90786
:101A50000ED1214651F8280F41F2011220EA02026C
:101A6000002042F001020A60002184F82410B0BD79
:101A7000054602E08068C007EBD000F0CFF9411BBB
:101A800020680329F6D38168C907F3D0A06A2146EC
:101A900040F01000A06251F82C2F0120E1E7000077
:101AA000014690F82100022816D10868D1E90FC339
:101AB000026822F00E020260026822F00102026057
:101AC000012000FA03F2CCF8042081F82100002064
:101AD000002281F820207047042088630120002222
:101AE00081F820207047000090F82110022923D1AE
:101AF000026840F2040C1168C4F2020C21F00E01DD
:101B0000116013682F21C4F202018A4223F00103FD
:101B1000136015DD3023C4F202039A421CD0442323
:101B2000C4F202039A421BD05823C4F202039A4221
:101B30001CD14FF4803321E00421816301207047E0
:101B40000823C4F202039A420ED01C23C4F20203FB
:101B50009A420BD1102311E04FF480730EE000BFC6
:101B60004FF480530AE000BF012307E00CF1680145
:101B70004FF080738A4208BF4FF480130121CCF8E4
:101B8000003080F82110416B0022002980F82020CD
:101B900004BF0020704780B58847002080BD00004A
:101BA000B0B5044600F03AF9054640F20000C2F232
:101BB00000000078611C18BF044400BF00F02EF93B
:101BC000401BA042FAD3B0BD022818BF704740F2B4
:101BD0007800C2F2000001214171704740F21441C7
:101BE000C4F201010A68024214BF08607047FFF79F
:101BF000EBBF00002DE9F04F82B00E68002E00F020
:101C0000FD8041F20042C4F20102042340F2004E82
:101C1000904208BF03234FF6FF7CC4F2010E0093ED
:101C200000240123C1F2100C4FF0000A4FF000090C
:101C30004BE000BF41F20002C4F20102009F90425B
:101C400008BF022704F00C030F229A402BEA02027D
:101C500007FA03F34FEA9A051A4346F825204E681F
:101C600040F20C45F202DEF8082054BF22EA0802D6
:101C700042EA0802C4F20105CEF808202A68B3023D
:101C800054BF22EA080242EA08022A60B303DEF8DF
:101C9000042054BF22EA080242EA0802F303CEF805
:101CA0000420DEF800204FF0010354BF22EA0802AE
:101CB00042EA0802CEF800200E680AF1010A36FA5C
:101CC0000AF204F1040400F0998003FA0AFB16EA10
:101CD0000B08F1D04E68664512DC122E56D8DFE8AC
:101CE00006F0350B4D4955555555555555555555D6
:101CF00055555545510000BFD1F80C9046E000BF46
:101D00004FF6FF72C1F2210296420FDC0022C1F2AF
:101D1000110296421AD00022C1F21202964215D048
:101D20000022C1F22102964210D02FE00022C1F21F
:101D3000220296420AD00022C1F23102964205D018
:101D40000022C1F23202964220D100BF8A684AB115
:101D5000012A14BFC0F814B0C0F810B04FF0080941
:101D600014E000BF4FF0040910E000BFCA6802F1A0
:101D700004090BE04FF0000908E000BFCA6802F157
:101D8000080903E0CA6802F10C0900BF02462646B2
:101D9000B8F5807F24BF0432203E17680F25B54078
:101DA00027EA050509FA06F635431560CA79D20611
:101DB0007FF582AF41F21803C4F202031A68AEF550
:101DC0007E7642F001021A601A6802F00102019266
:101DD000019A2AF0030256F802B040F60002C4F25B
:101DE0000102904208D040F60042C4F20102904243
:101DF0007FF420AF012725E7002723E702B0BDE8E5
:101E0000F08F00008068084018BF01207047000074
:101E1000002A08BF090401617047000040F25060C9
:101E2000C2F2000000687047002804BF012070471C
:101E3000F0B581B0044690F83D0028B9002084F840
:101E40003C00204600F09AFA242084F83D002068E7
:101E5000016821F001010160016841F40041016065
:101E6000016821F40041016000F0CEFC636848F293
:101E7000A16CC0F2010C40F60011C0F23D016345B7
:101E80003CBF48F28041C0F21E01884202D20120CC
:101E900001B0F0BD4DF68361C4F21B31A0FB01120D
:101EA0002168970CD1F804E04FF496762EF03F05A8
:101EB00045EA92454D60774348F638160D6AC0F200
:101EC0004106A7FB067625F03F07634538BF960C11
:101ED000721C3A430A62CA6948F2A0664CF6FF7760
:101EE000C0F20106B34222EA07020BD801385B00B8
:101EF000B0FBF3F001306FF31F30042898BF0420CB
:101F00001BE000BFA768013857B119277B43B0FB1E
:101F1000F3F001306FF31F3070B100F5804007E03F
:101F200003EB4303B0FBF3F001306FF31F3018B144
:101F300000F5004001E000BF01201043C8610868BF
:101F4000D4E9072320F0C0001043184308608868D4
:101F500048F2FF3204F10C0790438CCF1843104332
:101F6000A6698860C86820F0FF0038433043C86025
:101F7000086840F00100086000202021206484F8F7
:101F80003D10206384F83E0001B0F0BD2DE9F04F14
:101F900083B01E46924688460446FFF73FFF94F8FA
:101FA0003D10202924D12168054600BF886980079B
:101FB0001AD5FFF733FF401B21681A28F6D388692A
:101FC0008007F3D500202021206384F83D1084F899
:101FD0003E00216C41F02001216484F83C00022085
:101FE00003B0BDE8F08F00BF94F83C00012803D196
:101FF000022003B0BDE8F08F4FF0010984F83C9057
:102000000868C00703D1086840F00100086008684C
:10201000002720F400600860242084F83D000020A0
:10202000CFF6FF702764E06208F0FE08BAF1010FF6
:1020300088BFD1464FF0A00A4FF0200B04E000BF4C
:1020400001374F4500F0A2800868002240F48070FC
:10205000086020464FF001113346009501F02CFD39
:102060002168002856D1C1F81080FFF7D7FE2168FB
:102070004B694A6994F83D50A02D054605D013F0F0
:10208000020008BF12F480601AD084F83DB048699D
:102090000A68800742F400720A6045D46FF48060D9
:1020A000486100BF88698007CAD5FFF7B7FE401BAB
:1020B00021681A28F6D388698007F3D54AE000BF63
:1020C000B6B100BFFFF7AAFE401BB04288BF84F83C
:1020D0003DA021684A69486994F83D30A02BD4D0CE
:1020E00012F0020208BF10F48060EBD0CDE700BF11
:1020F000FFF794FE84F83DA021684A69486994F886
:102100003D30A02BC1D012F00202BED110F480608D
:10211000EED0BAE70868C00544BF4FF400702064F1
:10212000032003B0BDE8F08F0020029048690290C0
:10213000886902900298886901E000BF8069800781
:102140001AD5FFF76BFE411B20681A29F6D3816967
:102150008907F3D500202021206384F83D1084F8FE
:102160003E00216C41F02001216484F83C000120F4
:1021700003B0BDE8F08F00BF202084F83D000020B0
:1021800084F83C0003B0BDE8F08F00BF202084F845
:102190003D00002084F83C00012003B0BDE8F08F32
:1021A0002DE9F04383B01E46174689460446FFF7E3
:1021B00035FE94F83D10202924D10546206800BF43
:1021C000816989071AD5FFF729FE411B20681A2962
:1021D000F6D381698907F3D500202021206384F894
:1021E0003D1084F83E00216C41F02001216484F808
:1021F0003C00022003B0BDE8F08300BF94F83C101F
:10220000012903D1022003B0BDE8F083012184F845
:102210003C100168C90703D1016841F00101016068
:10222000016840F2020821F400610160212184F874
:102230003D10102184F83E100021216467626685FC
:10224000618DC0F201082185A8F10211E162E16A05
:102250000A9E11F5803F18BF01291DD1016841F484
:102260008071016020464FF0011100223346009535
:1022700001F022FC50B120680068C00544BF4FF453
:1022800000702064012003B0BDE8F0832069B0F540
:10229000804F07D1FE2015E00829DFD0216B1229DD
:1022A000DCD0DFE7062000EAD9102168F0300861B1
:1022B00008F10601204632462B4601F0E3FC0028D7
:1022C000E0D1FF20216800EA09000861204641466C
:1022D00032462B4601F0D6FC0028D3D100200290D4
:1022E00020684169029180690290029806E000BF6F
:1022F000204631462A4601F081FB18BB208D68B389
:10230000204631462A4601F029FDD8B9606A216885
:10231000024612F8013B0B616262628D013A6285EE
:10232000228D531E23854F697F07E1D51B04DFD023
:10233000437802300B616062608D01386085901EC9
:102340002085D5E7206C04289CD12068016841F4E1
:1023500000710160012003B0BDE8F08320680168CE
:1023600041F400710160202084F83D00002084F8D1
:102370003E0084F83C0003B0BDE8F08310B586B0A1
:10238000016845F20040C4F2000081424FF00001B4
:10239000CDE90411CDE9021102D006B010BD00BF95
:1023A00041F21804C4F20204216800F5384041F0FB
:1023B00008012160216801F0080101910199C02103
:1023C0000291122103910321059102A9FFF712FC4A
:1023D000606840F400106060606800F400100190D4
:1023E000019806B010BD000040F2000040F25061BC
:1023F000C2F20000C2F2000100780A6810440860CE
:102400007047000080B542F20000C4F2020001688B
:1024100041F010010160032000F08CF80F2000F063
:1024200005F800F027F8002080BD000070B540F2EC
:102430000006C2F2000640F210013278C2F200013A
:102440004FF47A730968B3FBF2F20446B1FBF2F180
:10245000084600F001FC0F2C4FF0010508D838B9F0
:102460004FF0FF3021460022002500F037F874605D
:10247000284670BD82B041F21800C4F20200016823
:10248000042241F001010160016801F001010191A4
:102490000199416841F080514160406800F08050EE
:1024A000009000980420C4F20100016862F31A61F0
:1024B000016002B070470000002848BF704700F07C
:1024C0001F01012202FA01F11C2202EAD0004EF2A1
:1024D0000012CEF2000281507047000010B54EF697
:1024E0000C5CCEF2000CDCF80030C3F3022E8EF050
:1024F0000704042C28BF0424BEF103034FF0FF3E61
:102500000EFA04F438BF0023A14399400EFA03F3F6
:102510009A43114300F00F0200F160430901043AAD
:1025200003F564436244002848BF02F10C031970AC
:1025300010BD00004EF60C51CEF200010A684FF6B5
:10254000FF031A4060F30A2242F0806040F0FD7001
:1025500008607047012821D002280DD0102808D12A
:1025600041F20401C4F202010A6851F8040CC001EE
:1025700034D40020704700BF80B500F059F941F213
:102580000401C4F2020109680222C1F3813102EBA5
:102590004101B0FBF1F0BDE88040704741F204001A
:1025A000C4F20200C16940F202320A40B2F5817FF2
:1025B00004BF4FF40040704701F44071B1F5407F13
:1025C00018D0B1F5007F1CBF00207047006A49F6A3
:1025D0004041800701EAE070704700BFC2F38340CA
:1025E00015A3185CD2030DD440F60012C0F23D02D0
:1025F000504313E050F8040C4FF22441800301EAE9
:10260000E07070470A6810A3C2F340429A5C41F23E
:102610000023C0F27A03B3FBF2F250430968490287
:1026200048BF70474AF6AB214000CAF6AA21A0FB7A
:1026300001014808704700BF0203040506070809A6
:102640000A0B0C0D0E0F101001020000002804BF31
:10265000012070472DE9F04381B042F20008C4F236
:1026600002080446D8F800000D4600F00700814239
:102670000CD9D8F8000020F007002843C8F8000063
:10268000D8F8000000F00700A8426CD1206841F2A1
:1026900004098107C4F2020917D5410705D5D9F805
:1026A000001041F4E061C9F80010010705D5D9F820
:1026B000001041F46051C9F80010D9F80010A26868
:1026C00021F0F0011143C9F80010C00742D1D8F839
:1026D000000000F0070085420CD2D8F8000020F07E
:1026E00007002843C8F80000D8F8000000F00700F1
:1026F000A84238D12068410707D5D9F80010E26810
:1027000021F4E0611143C9F80010000708D5D9F899
:102710000000216920F4605040EAC100C9F80000BF
:10272000D9F8002002F00C00082841F20020C0F285
:102730007A004DD146F69623C2F38341C0F60003DA
:10274000595CD20338D440F60010C0F23D00484333
:102750003EE000BF606859F8041C022808D0012838
:1027600026D1890306D4012001B0BDE8F08300BF63
:102770008901F8D5D9F8001021F003010843C9F800
:102780000000FFF74BFB064641F28837D9F80000FE
:10279000616800F00C00B0EB810F98D0FFF73EFBB2
:1027A000801BB842F2D9032001B0BDE8F08300BF1E
:1027B0008907D8D5DEE700BFD9F8002046F6942374
:1027C000C2F34042C0F600039A5C4843B0FBF2F00B
:1027D000D9F8001046F21032C1F30311C0F600021E
:1027E000515C40F2100220FA01F140F20400C2F202
:1027F00000000068C2F200021160FFF717FE00201F
:1028000001B0BDE8F083000040F2100041F2040185
:10281000C2F20000C4F202010068096846F22032E8
:10282000C1F30221C0F60002515CC84070470000AD
:1028300040F2100041F20401C2F20000C4F20201B1
:102840000068096846F22032C1F3C221C0F60002D6
:10285000515CC84070470000002804BF0120704749
:102860002DE9F04182B00446007841F20006C0072D
:10287000C4F202060CD0706800F00C00042840F08E
:1028800081803068800303D56068002800F04681AD
:10289000207880071BD5706810F00C0F09D0706885
:1028A00000F00C00082840F087807068C00300F139
:1028B00083803068800703D52069012840F02E818D
:1028C0003068616920F0F80040EAC100306020788B
:1028D000000713D4207840072CD4E569002D00F0C0
:1028E0001881706800F00C00082840F0A780012DC6
:1028F00040F00481012002B0BDE8F081A069002809
:1029000000F084800020C4F242200121C0F880142D
:10291000FFF784FA054600BF706A800700F1B280B5
:10292000FFF77CFA401B0228F6D9032002B0BDE86D
:10293000F08100BFF0695FEAC00808D4F06940F098
:102940008050F061F06900F080500090009847F2EC
:102950000007C4F200073868C00549D4386840F45D
:1029600080703860FFF75AFA054600BF3868C00526
:102970003ED4FFF753FA401B6428F7D9032002B076
:10298000BDE8F081706800F00C00082803D1706881
:10299000C0033FF576AF61683068002900F00C8114
:1029A000B1F5A02F00F00081B1F5803F40F01A8111
:1029B00040F480301CE100BF2069002840F2000094
:1029C000C4F2422000F0888001210160FFF726FA5E
:1029D000054600BF306880073FF572AFFFF71EFA6B
:1029E000401B0228F6D9032002B0BDE8F08100BFE9
:1029F000E168306A002900F09D80052900F092808E
:102A0000012940F0AF8040F00100B1E00020C4F2A5
:102A100042200021C0F88014FFF700FA054600BFED
:102A2000706A80077FF556AFFFF7F8F9401B022860
:102A3000F6D9032002B0BDE8F08100BF0027C4F240
:102A4000422700203866FFF7E9F9022D05460DD12F
:102A50003068800140F1DE80FFF7E0F9401B02287A
:102A60004FF00300F4D902B0BDE8F0813068800176
:102A70004FD5FFF7D3F9401B02284FF00300F5D9DB
:102A8000F1E700BF40F21000C2F20000006844F617
:102A9000D351C1F26201A0FB0101480A019000BFBD
:102AA00000BF0198411E002801913FF413AF00BF01
:102AB0000198411E002801913FF40CAF00BF01981E
:102AC000411E002801913FF405AF00BF0198411E4F
:102AD00000280191E4D1FDE600210160FFF79EF995
:102AE000054600BF306880077FF5F1AEFFF796F925
:102AF000401B02284FF00300F4D9B4E77068216A44
:102B000000F480328A4209D1616A00F47010884270
:102B100004D1002002B0BDE8F08100BF012002B066
:102B2000BDE8F08140F004003062306A40F00100FE
:102B30001EE000BF20F001003062306A20F0040087
:102B40003062FFF76BF9054641F28837306A80073B
:102B500020D5FFF763F9401BB8424FF00300F5D9C9
:102B600081E700BF20F001003062306A20F00400ED
:102B70003062FFF753F9054641F28837306A800723
:102B800008D4FFF74BF9401BB842F7D9032002B035
:102B9000BDE8F081B8F1000F3FF59FAEF06920F07D
:102BA0008050F06199E600BF40F4802030603068CA
:102BB00040F480301CE000BF20F48030306030688A
:102BC00020F480203060FFF729F905463068800343
:102BD0007FF55EAEFFF722F9401B64284FF003003B
:102BE000F4D940E720F480303060306820F4802051
:102BF0003060FFF713F90546306880033FF548AEB3
:102C0000FFF70CF9401B6428F6D9032002B0BDE899
:102C1000F08100BF206AB0F5803F05D17168A268DD
:102C200021F40031114371607168626A21F47411FA
:102C300011430843706001203866FFF7EFF804463F
:102C4000306880013FF565AFFFF7E8F8001B022808
:102C50004FF00300F4D906E7411E0020B0EB116FDE
:102C60001CBF012070474EF21002CEF200025160EC
:102C70004EF62351CEF20001F0230B700721906035
:102C80001160704790F83C20012A4FF0020236D0C4
:102C900010B580F83D200268D2F804E0D2F808C0F0
:102CA0000C682EF07003234340F2FF74C4F200045A
:102CB000A24253600ADCB2F1804F13D040F20043CD
:102CC000C4F200039A420DD011E000BF42F6004367
:102CD000C4F201039A4205D040F60003C4F2000397
:102CE0009A4204D149682CF0800319439160012174
:102CF000002280F83D1080F83C20BDE810401046CE
:102D000070470000002804BF0120704710B590F8FC
:102D10003D1031B9002180F83C10044600F070F8F5
:102D20002046022180F83D10016840F2FF740B68D4
:102D3000C4F2000442F6004CA142C4F2010C15DCBE
:102D4000B1F1804F1AD040F20042C4F20002914229
:102D500014D0A14218DCB1F1804F1DD040F20042E6
:102D6000C4F20002914217D01AE000BF614505D0BD
:102D700040F60002C4F200029142EAD1826823F0D8
:102D800070031343A142E6DD614505D040F6000221
:102D9000C4F20002914203D1026923F44073134349
:102DA000846923F08002D0F804E0C36822436145BF
:102DB0000A60CB62C1F828E002D14269CCF8302029
:102DC00001224A610B69DB0703D00B6923F0010381
:102DD0000B6180F8462080F83E2080F83F2080F884
:102DE000402080F8412080F8422080F8432080F87D
:102DF000442080F8452080F83D20002010BD0000D0
:102E000082B0006840F60001C4F20001884211D08F
:102E1000B0F1804F1BD141F21C00C4F202000168E6
:102E200041F001010160006800F00100019001988B
:102E300002B0704741F21C00C4F20200016841F088
:102E400004010160006800F004000090009802B0E6
:102E50007047000090F83D1001291CBF0120704709
:102E6000022180F83D10006840F2FF71C4F20001B9
:102E7000884209DCB0F1804F12D040F20041C4F228
:102E8000000188420CD012E042F60041C4F2010178
:102E9000884205D040F60001C4F20001884206D104
:102EA000816801F00701062904BF0020704701680E
:102EB00041F00101016000207047000090F83C20C3
:102EC000012A4FF002026CD080B580F83D20D0F886
:102ED00000C04FF67772DCF8083023EA0202CCF823
:102EE00008200B684F2B29DC1F2B45DD202B46D0FB
:102EF000302B44D0402B40F0AF80D1F804E0C968BB
:102F0000DCF82030DCF8202022F00102CCF8202070
:102F1000DCF8182022F0F00242EA011123F00A0244
:102F200042EA0E02CCF81810CCF82020DCF8081089
:102F300041F0470121F0300128E000BF6F2B33DD65
:102F4000B3F5005F74D0B3F5805F21D0702B40F0F3
:102F50008380D1E901E3C968DCF8082043EA0E0365
:102F600022F47F4243EA01211143CCF80810DCF837
:102F7000081041F0770109E00BB1102B6CD1DCF89F
:102F8000081021F07001194341F00701CCF8081036
:102F90000022012180F83D10002180F83C10BDE89E
:102FA00080401046704700BF502B21D0602B53D17A
:102FB000D1F804E0C968DCF82030DCF8202022F0E9
:102FC0001002CCF82020DCF8182022F4704242EAEB
:102FD000013123F0A00242EA0E12CCF81810CCF80E
:102FE0002020DCF8081041F0670121F01001CDE746
:102FF000D1F804E0C968DCF82030DCF8202022F0A9
:103000000102CCF82020DCF8182022F0F00242EA7D
:10301000011123F00A0242EA0E02CCF81810CCF893
:103020002020DCF8081041F0570121F02001ADE725
:10303000D1E901E3C968DCF8082043EA0E0322F471
:103040007F4243EA01211143CCF80810DCF8081054
:1030500041F480419AE700BF01229AE770470000DF
:10306000006843F60001C4F20101884218BF7047AE
:1030700081B00020009040F20860C2F200000168B8
:103080000A680092496801220091009940F2780193
:10309000C2F2000101B000F073BB0000B0B582B015
:1030A00001680A68CC684B6902F02F05202D04F0F6
:1030B000200505D125B102B0BDE8B04001F050B9FE
:1030C0005FEA027C1EBF03F0010E04F4907313EB61
:1030D0000E0341D1036BD50618D5012B16D114F080
:1030E000100313D0002201920A6801924A680192EB
:1030F000019A496949064BD4818DC28DC38D002B3D
:1031000018BF914240F0F48102B0B0BD13062DD536
:1031100014F080032AD090F84120212AF4D182684B
:10312000B2F5805F03D10269002A00F06782026A6B
:10313000531C036212784A60C28C013A1304C284A1
:10314000E2D1C86820F08000C860C86840F0400044
:10315000C86002B0B0BD00BFD30718BF14F48073BD
:1031600040F0D080530700F1D380D8E05206CBD591
:1031700014F04002C8D0CA6822F04002CA60202180
:1031800080F8411002B0BDE8B04000F033BC00BF91
:10319000C16B0A68526893B2002BB5D0858DAB42E3
:1031A000B2D2C2858969202900F0A180016851E866
:1031B000031F026821F4807142E80313DBB1016848
:1031C00051E8031F026821F4807142E8031393B1B0
:1031D000016851E8031F026821F4807142E803137B
:1031E0004BB1016851E8031F026821F4807142E885
:1031F0000313002BDAD1016851E8051F026821F0A2
:10320000010142E80513C3B3016851E8051F0268D4
:1032100021F0010142E805137BB3016851E8051F65
:10322000026821F0010142E8051333B3016851E857
:10323000051F026821F0010142E80513002BDAD1D5
:103240001BE000BF016851E8051F026821F0400142
:1032500042E80513DBB1016851E8051F026821F05F
:10326000400142E8051393B1016851E8051F026867
:1032700021F0400142E805134BB1016851E8051FF8
:10328000026821F0400142E80513002BDAD1202129
:1032900080F8421000210163016851E8031F0268B1
:1032A00021F0100142E80313DBB1016851E8031F6C
:1032B000026821F0100142E8031393B1016851E85C
:1032C000031F026821F0100142E803134BB10168AB
:1032D00051E8031F026821F0100142E80313002B9C
:1032E000DAD1C16B04460846FEF7DAFB204602211C
:1032F0004163818DC28D891A89B202B0BDE8B040A8
:10330000FFF7ACBE436C43F001034364530706D59B
:10331000BEF1000F03D0436C43F0020343649307F4
:1033200006D5BEF1000F03D0436C43F004034364A1
:10333000BCF1000F06D55EEA050303D0436C43F0F1
:1033400008034364436C002B3FF4DEAE920605D5C0
:1033500025B1044601F004F8216820464969426C11
:1033600001F0400102F00802891800F0B98000BFA6
:10337000016851E8031F026821F4907142E80313C9
:10338000BBB3016851E8031F026821F4907142E861
:10339000031373B3016851E8031F026821F49071AD
:1033A00042E803132BB3016851E8031F026821F4BC
:1033B000907142E80313002BDAD11AE0016851E85A
:1033C000051F026821F0010142E80513DBB1016825
:1033D00051E8051F026821F0010142E8051393B18D
:1033E000016851E8051F026821F0010142E8051358
:1033F0004BB1016851E8051F026821F0010142E864
:103400000513002BDAD1016B012924D1016851E8A1
:10341000031F026821F0100142E80313DBB10168C9
:1034200051E8031F026821F0100142E8031393B131
:10343000016851E8031F026821F0100142E80313FC
:103440004BB1016851E8031F026821F0100142E806
:103450000313002BDAD1202180F8421000210163F0
:1034600001684969490640F1C380016851E8051FB8
:10347000026821F0400142E80513DBB1016851E820
:10348000051F026821F0400142E8051393B101686D
:1034900051E8051F026821F0400142E805134BB1D5
:1034A000016851E8051F026821F0400142E8051358
:1034B000002BDAD1C16B002900F09A8044F255321A
:1034C000C0F60002044608464A63FEF70DFB0028DA
:1034D0003FF41AAEE06B416B02B0BDE8B040084764
:1034E0000446FFF7BDFD0020606402B0B0BD00BF20
:1034F000891A00BF026852E8032F036822F4907211
:1035000043E80325BDB3026852E8032F036822F4A1
:10351000907243E8032575B3026852E8032F0368ED
:1035200022F4907243E803252DB3026852E8032F7A
:10353000036822F4907243E80325002DDAD11AE0E3
:10354000026852E8052F036822F0010243E80525CE
:10355000DDB1026852E8052F036822F0010243E85A
:10356000052595B1026852E8052F036822F0010293
:1035700043E805254DB1026852E8052F036822F0A3
:10358000010243E80525002DDAD1202280F84220EF
:1035900000220263026852E8032F036822F010023F
:1035A00043E80325DDB1026852E8032F036822F0E7
:1035B000100243E8032595B1026852E8032F03681F
:1035C00022F0100243E803254DB1026852E8032FB0
:1035D000036822F0100243E80325002DDAD102220D
:1035E00089B2426302B0BDE8B040FFF737BD00BF0B
:1035F00002B0BDE8B040FFF733BD00BF026A32F849
:10360000023B6FF35F234B60026295E5002804BF25
:103610000120704710B5044690F8410028B90020F9
:1036200084F84000204600F063F8242084F841002C
:103630002068D4E90212C36823F40053C36003690D
:1036400023F440531A430261D4E904231143C268AE
:10365000194341F20C639A431143C1604169A26965
:1036600021F44071114343F60002C4F2010290427A
:10367000416103D0FFF7C8F802E000BFFFF7D8F8B8
:10368000D4E90023192148439900B0FBF1F048F236
:103690001F5CC5F2EB1CA0FB0C314FF69C73490973
:1036A000C0F6FF7301FB0300322303EB0010A0FB05
:1036B0000C03F02000EA531000EB0110C3F3431198
:1036C000084490601069202120F4904010615069F6
:1036D00020F02A005061D06840F40050D0600020F3
:1036E000606484F8411084F84210606310BD0000EB
:1036F00070B586B040F60004C4F20104006804F519
:103700004051002688420596CDE90366029601D015
:1037100006B070BD41F21800C4F20200016802ADAB
:1037200041F004010160016801F004010191019977
:10373000016841F4804101600068294600F480403E
:10374000019001984FF40070029002200390032032
:1037500005902046FEF74EFA4FF48060CDE9020650
:10376000204629460496FEF745FA2520012100222D
:10377000FEF7B4FE2520FEF79FFE06B070BD0000E8
:1037800090F84230202B07D100294FF0010318BFD9
:10379000002A05D11846704702231846704700BF1B
:1037A00000230363816222218285C285436480F8FD
:1037B00042100169006819B1C16841F48071C160AB
:1037C000416941F001014161C16841F02001C160DE
:1037D00018467047006843F60001C4F201018842B0
:1037E00018BF704740F27800C2F2000001780D293E
:1037F0002AD0427B42BB827B0A2919D112B310B571
:10380000817B00F14C020023535400F14C0E9EE8E2
:103810000E50046E416601218266C366C0F870C016
:10382000C0F874E084674173BDE810400AE000BF4F
:10383000162A07D8827B531C8373104480F84C10DF
:1038400002E000BF0021817340F2086040F278017D
:10385000C2F20000C2F200010122FFF791BF000096
:103860002DE9F04381B0044690F84100202809D1A9
:1038700000294FF0010018BF002A07D101B0BDE8B0
:10388000F08300BF022001B0BDE8F0830020606437
:1038900021201D460E4684F841001746FEF7BEFA69
:1038A000A784E784A1688146B1F5805F02D12069D1
:1038B00000285DD037460020E28C2168002A5DD0C8
:1038C0006A1C24D0002D4AD0804600BF086800063C
:1038D00008D4FEF7A3FAA0EB0900A8427AD8216821
:1038E000C868F3E717B117F8010B04E038F8020BCA
:1038F00000276FF35F204860E08C0138E084E08CA3
:103900000028E3D13AE000BF0A68120609D40A6829
:10391000120606D40A6812065CBF0A685FEA0262F1
:10392000F2D51FB117F8012B05E000BF30F8022BCC
:1039300000276FF35F224A60E28C013AE284E28C56
:10394000002AE4D11AE000BF30F8022B00276FF301
:103950005F224A60E28C013AE284E28C72B10A682A
:10396000120635D5002FEFD017F8012BF1E700BF75
:1039700000273046E28C2168002AA1D10868400661
:103980001ED42DB3681C14D1086840062AD40868D8
:10399000400627D40868400624D4086840064FF043
:1039A0000000F1D50DE000BF2068C1680068400646
:1039B00018D4FEF733FAA0EB0900A842F4D909E0C5
:1039C0000020202184F8411001B0BDE8F08300BF41
:1039D000FEF724FA0320202184F8411001B0BDE84D
:1039E000F08300BF0020202184F8411001B0BDE821
:1039F000F083000070470000FEE7000070B5036828
:103A0000044653F8140F400711D40E46481C29D021
:103A100086BB00BF1868400527D4FEF7FFF923686E
:103A200053F8140F400737D518684007F2D5002027
:103A300070BD00BF18684007F9D41868400514D459
:103A400018684007F3D4186840050ED4186840077A
:103A5000EDD41868400508D4186840074FF00000FE
:103A600048BF70BD18684005E4D56FF480601860E9
:103A7000042012E0154603E053F8140F4007D6D493
:103A800018684005F1D4FEF7C9F9401B2368B0421D
:103A9000F2D958694007EFD4202000212022216369
:103AA00084F83D2084F83E10226C104320640120ED
:103AB00084F83C1070BD00002DE9F0410546006817
:103AC0001E46144601F47F0201338FB242D0DDF866
:103AD0001880B2F5803F40F0878040693840C01BB5
:103AE000B0FA80F04009844240F0C8804EB924E02A
:103AF00040693840C01BB0FA80F04009844240F071
:103B0000BD80FEF78BF9A0EB08012868B142EFD920
:103B100041693940C91BB1FA81F149098C42E7D1A9
:103B20009BE000BF40693840C01BB0FA80F04009FC
:103B300084424FF0000040F0A280FEF76FF9286841
:103B400041693940C91BB1FA81F149098C42E9D177
:103B500083E000BFB2F5803F24D100BF4169394006
:103B6000C91BB1FA81F149098C4240F08780416953
:103B70003940C91BB1FA81F149098C4240F07E807D
:103B800041693940C91BB1FA81F149098C4275D1AB
:103B900041693940C91BB1FA81F149098C42DDD034
:103BA0006CE000BF81693940C91BB1FA81F1490954
:103BB0008C4263D181693940C91BB1FA81F149094D
:103BC0008C425BD181693940C91BB1FA81F1490945
:103BD0008C4253D181693940C91BB1FA81F149093D
:103BE0008C42DFD04AE000BF80693840C01BB0FA89
:103BF00080F04009844241D146B923E080693840D1
:103C0000C01BB0FA80F04009844237D1FEF706F9B4
:103C1000A0EB08012868B142F0D981693940C91B7D
:103C2000B1FA81F149098C42E8D116E08069384047
:103C3000C01BB0FA80F0400984424FF0000018BF6A
:103C4000BDE8F081FEF7EAF8286881693940C91BB0
:103C5000B1FA81F149098C42E8D100202021286382
:103C600085F83D1085F83E00296C41F0200129645B
:103C700085F83C000120BDE8F08100BF0020BDE8D0
:103C8000F0810000F0B581B0044600681D4643692C
:103C90008FB203EA0701B94202D1002001B0F0BDA2
:103CA0004169164601323CD0490512D47EB300BFAB
:103CB000FEF7B4F8411B2068B14203D9416939408D
:103CC000B9422BD141693940B942E6D04169490531
:103CD000EED5016841F4007101606FF480614161CB
:103CE000042000212022216384F83D2084F83E1026
:103CF000226C1043206484F83C10012001B0F0BD18
:103D000041693940B942C8D041694905E1D4FEF75B
:103D100085F8206841693940B942F1D02020E0E7B8
:103D200041694905D5D441693940B942B5D04169A5
:103D30004905CED441693940B942AED041694905FF
:103D4000C7D441693940B942A7D041694905C0D4B7
:103D500041693940B942E3D19FE7000070B503687B
:103D6000044653F8140F000611D40E46481C29D0FF
:103D700086BB00BF1868400527D4FEF74FF82368BC
:103D800053F8140F000637D518680006F2D5002046
:103D900070BD00BF18680006F9D41868400514D437
:103DA00018680006F3D4186840050ED41868000699
:103DB000EDD41868400508D4186800064FF00000DC
:103DC00048BF70BD18684005E4D56FF48060186086
:103DD000042012E0154603E053F8140F0006D6D471
:103DE00018684005F1D4FEF719F8401B2368B0426B
:103DF000F2D958690006EFD4202000212022216347
:103E000084F83D2084F83E10226C10432064012089
:103E100084F83C1070BD0000FEE70000FEE70000E3
:103E20007047000080B50246002840F26C10C2F2D4
:103E300000004FF4806118BFFF22FCF7F8FB80BD43
:103E400040F2F402C2F200025080918070470000FC
:103E50002DE9F04182B040F26C50C2F200007821AE
:103E6000012244F62063FEF791F84FF0000418B1E8
:103E7000204602B0BDE8F08140F26C554FF42E4070
:103E8000C2F20005ADF806000A260DF1060228462A
:103E9000782102230096FEF783F94FF400580DF1C4
:103EA0000602284678210223ADF806800096FEF728
:103EB00077F94FF480570DF1060228467821022346
:103EC000ADF806700096FEF76BF94FF43040ADF890
:103ED00006000DF106022846782102230096FEF71F
:103EE0005FF94FF44840ADF806000DF10602284690
:103EF000782102230096FEF753F90DF106022846B9
:103F000078210223ADF806400096FEF749F90DF13D
:103F10000602284678210223ADF806700096FEF7C7
:103F20003FF94FF48040ADF806000DF10602284637
:103F3000782102230096FEF733F94FF40140ADF8E3
:103F400006000DF106022846782102230096FEF7AE
:103F500027F94FF47F40ADF806000DF10602284620
:103F6000782102230096FEF71BF94FF42140ADF8AB
:103F700006000DF106022846782102230096FEF77E
:103F80000FF94FF42640ADF806000DF10602284661
:103F9000782102230096FEF703F94FF42840ADF88C
:103FA00006000DF106022846782102230096FEF74E
:103FB000F7F84FF47C50ADF806000DF106022846E4
:103FC000782102230096FEF7EBF84FF42440ADF879
:103FD00006000DF106022846782102230096FEF71E
:103FE000DFF84FF45340ADF806000DF10602284605
:103FF000782102230096FEF7D3F80DF10602284639
:1040000078210223ADF806400096FEF7C9F84FF478
:104010005540ADF806000DF106022846782102232E
:104020000096FEF7BDF84FF47040ADF806000DF1B4
:1040300006022846782102230096FEF7B1F84FF4D5
:104040005940ADF806000DF10602284678210223FA
:104050000096FEF7A5F84FF40850ADF806000DF1F4
:1040600006022846782102230096FEF799F84FF4BD
:104070005A40ADF806000DF10602284678210223C9
:104080000096FEF78DF84FF49050ADF806000DF154
:1040900006022846782102230096FEF781F84FF4A5
:1040A0005B40ADF806000DF1060228467821022398
:1040B0000096FEF775F80DF10602284678210223D6
:1040C000ADF806800096FEF76BF84FF40D40ADF8A2
:1040D00006000DF106022846782102230096FEF71D
:1040E0005FF84FF4A050ADF806000DF10602284627
:1040F000782102230096FEF753F84FF42F40ADF8D5
:1041000006000DF106022846782102230096FEF7EC
:1041100047F84FF43850ADF806000DF10602284676
:10412000782102230096FEF73BF840F26C10C2F2B1
:1041300000004FF48061FCF782FA00F0B5F840F21D
:10414000F400C2F20000C0F802400124204602B090
:10415000BDE8F0812DE9F04F89B040F2F405C2F2DC
:1041600000056B8891F8008008EB03077F2F05D8C6
:104170009C46AB884E78F7183F2F03D9002009B032
:10418000BDE8F08F002E009066D02D782038B5FA6B
:1041900085F77C09B2FA82F7029078090790002D22
:1041A00018BF01254868121BB2FA82F2019000275D
:1041B0005009444608950690CDE9033104E000BF5C
:1041C00000240137B74247D2002CF9D0DA1995B252
:1041D0003F2DF6D80298019B704303EB400030F866
:1041E00017A002F00700012303FA00F54FF46070F6
:1041F00091F8008000EA021B6FEA050E0022059785
:1042000003E000BF0132424520D20CEB02061FFA48
:1042100086F9B9F17F0FF5D846EA0B0640F26C102B
:104220000AFA02F1B6B2C2F200000904835D0699EF
:10423000DDE9077458BF87EA040103EA0E04002988
:1042400018BF43EA05048455DCE700BF0499039BCB
:104250004E78059F4446B4E75FFA88F040F2F401D7
:104260006044C2F2000148805DF8240BBDE8F08F85
:104270000378002B04BF0020704770B514460D462C
:10428000461C00BFD8B229462246FFF763FF16F846
:10429000011C884204D116F8013B002BF2D1002109
:1042A000BDE87040084670472DE9F04FC1B00DF1F0
:1042B000040B40F26C560BF101094FF000086FF04F
:1042C0007F050A24C2F200064FF0000A40F26C108B
:1042D0008035C2F200002F184AF0B0008DF80500BA
:1042E000304678215A4602238DF804800094FDF769
:1042F00057FF304678215A460223ADF804800094D7
:10430000FDF74EFF4FF48050ADF8040030467821A1
:104310005A4602230094FDF743FF40208DF8040025
:10432000484639468022FCF7FBF8304678215A4649
:1043300081230094FDF734FFB5F5607F0AF1010A8F
:10434000C4D141B0BDE8F08F70470000FEF74CB813
:1043500070470000406A0021C185C184FEF780BE1D
:1043600081B090F84210222921D183680246B3F52A
:10437000805F09D152F8281F52F8183C002B63D0F7
:1043800003685B680AE000BF52F8281F13B903698D
:10439000002BF5D003685B6803F07F030B70116896
:1043A00001311160C18D01390A04C18502D001B00B
:1043B000704700BF0168CA6822F02002CA60CA685C
:1043C00022F48072CA604A6922F001024A61202107
:1043D00080F8421000214163026B012A3CD1016345
:1043E000016851E8031F026821F0100142E803133D
:1043F000DBB1016851E8031F026821F0100142E8B7
:10440000031393B1016851E8031F026821F0100102
:1044100042E803134BB1016851E8031F026821F021
:10442000100142E80313002BDAD101680A68D206B2
:1044300006D5002200920A6800924968009100990E
:10444000818D01B0FEF70ABE026852686FF35F22E9
:1044500021F8022B8162A5E701B0FFF7BBB900008C
:1044600040F20860C2F20000FEF718BEFEE700004E
:10447000A0B0FDF7C7FF16AC201D2421FCF7DFF824
:104480000220169001201A9010201B900025204633
:104490001D95FEF7E1F928B1EFF3108072B600BF69
:1044A000FEE700BF0F20CDE9100510A80021CDE9DF
:1044B00012551495FEF7CAF820B1EFF3108072B6CA
:1044C000FEE700BF002541F21800CDE91855CDE9FF
:1044D0001655C4F20200016840F6000941F00401DB
:1044E00001600168C4F2010901F004011091109902
:1044F000016809F5806641F008010160006821212A
:1045000000F008001090109830460022FDF780FC63
:1045100048460E2101224FF00108FDF779FC4FF4C7
:10452000807016ACCDE9160502274846214618973B
:10453000FDF760FB30462146CDE91688CDE91857D6
:10454000FDF758FB48462146CDE91678CDE91857C6
:10455000FDF750FB484602210122FDF759FC0420DB
:10456000CDE9160848462146CDE91857FDF742FB2C
:10457000484604210122FDF74BFC0820CDE916082E
:1045800048462146CDE91857FDF734FB4846082137
:104590000122FDF73DFC0020C1F22100CDE9170802
:1045A000304621461697FDF725FB2020CDE9160859
:1045B00030462146CDE918573746FDF71BFB07204B
:1045C00000210022FDF78AFF0720FDF775FF40F26A
:1045D000FC0009F5E051C2F200004FF460220573BF
:1045E0000575C261C0E900158560C0F81080FCF750
:1045F00097FF28B1EFF3108072B600BFFEE700BF4F
:1046000040F2FC0A0620C2F2000A189016A9504691
:10461000CDE91658FCF7E0FE20B1EFF3108072B63A
:10462000FEE700BF40F60006C4F2010640F26C50FF
:10463000A6F53441C2F2000041F6802200244FF476
:104640008043C0F2060280E81600C0E90343C0E9D7
:104650000544C0E90744FDF7E7FB28B1EFF31080FC
:1046600072B600BFFEE700BF40F2C050C2F20000C9
:104670004FF080414FF6FF731994CDE91744CDE90F
:104680001044072280E81600C0E903348461FEF775
:1046900039FB28B1EFF3108072B600BFFEE700BF10
:1046A0004FF48050169040F2C05016ACC2F2000099
:1046B0002146FEF703FC28B1EFF3108072B600BF6D
:1046C000FEE700BF40F2C050C2F2000010A9FEF7A2
:1046D000D9FA28B1EFF3108072B600BFFEE700BF31
:1046E00040F2086006F54051C2F2000000250C239C
:1046F0004FF4165280E82600C0E90355C0E905359D
:10470000C561FEF783FF28B1EFF3108072B600BFDA
:10471000FEE700BF40F27809C2F2000940F20860EB
:10472000C2F200004946012289F80E5089F80D5066
:10473000FFF726F8FFF78CFB40F21400C2F20000EE
:104740000560FDF76BFBC9F8100030464FF480712F
:10475000FDF758FB0138B0FA80F0400989F80100F4
:1047600089F8020089F80350FDF758FB99F8011009
:10477000C9F8140089F80410FDF750FBC9F81800B7
:10478000FDF74CFBC9F81C00FDF748FBC9F82000F9
:10479000FDF744FBC9F82400FDF740FBC9F82800E9
:1047A000304602210122FDF733FB3046042101226D
:1047B000FDF72EFB304608210122FDF729FB384684
:1047C0002021002289F80F500E97FDF721FBA01E33
:1047D0000F90601E0B9009F130000D9009F134002C
:1047E0000C9001E0C9F824B0FDF718FB99F80D1002
:1047F0008346002916AE4FF0000800F00082EFF368
:10480000108072B609F1640130461722FBF73EFFB3
:1048100000258DF86F5089F80D5062B69DF858400C
:10482000002C52D0FBF702FD00680025015DC9078E
:1048300024D071194C789CB1025DD20712D08C78CB
:10484000A4B1025DD20715D0CC78ACB1025DD2071D
:1048500000F0A6810C790435002CE7D10DE000BFF3
:1048600001350AE045F0010508E000BF45F002050A
:1048700003E000BF023501E0033500242F2C08BF00
:104880000135715D09B3415CC9071ED071194B78C0
:104890006A1C002B1CBFC35C5FEAC37314D08B7807
:1048A000AA1C002B1CBFC35C5FEAC3730CD0CB787F
:1048B000EA1C002B1CBFC35C5FEAC37304D00979F8
:1048C00004350029DFD100E015460020314600BF45
:1048D0004A5D7AB14A19537883B19378A3B1D278FB
:1048E0000431002A00F10400F2D12844471EAF42EF
:1048F0000ED836E02F18AF420AD832E02844471CC1
:10490000AF4205D82DE000BF2844871CAF4228D90C
:10491000FBF78CFC00680F9939444A78825CD20717
:104920001FD07A1EAA4240F26A810F9BDB5DC35CF6
:10493000DB0715D0BA1EAA4240F2618111F8013C92
:10494000C35CDB070CD0FA1EAA4240F2588111F872
:10495000021C415CC90703D0043FAF42DBD84EE1E3
:104960001746002DA7EB050418BFAF4204D1AF4294
:1049700006F8048009D110E0711930462246FBF791
:1049800014FEAF4206F8048007D00B9D15F8010F06
:10499000FBF754FC013C2870F8D19DF85800002822
:1049A00000F02D81FDF73AFA044630460FF6EC117F
:1049B0000C22FBF789FD002800F0D68030460FF668
:1049C000E8110B22FBF780FD002800F0CD80304677
:1049D0000FF6E0110D22FBF777FD002800F0D480E0
:1049E00030460FF6E0110C22FBF76EFD002800F0B8
:1049F000CB8030460FF6D8110D22FBF765FD00285D
:104A000000F0D28030460FF6D8110C22FBF75CFD87
:104A1000002800F0C98030460FF6D0110E22FBF7B7
:104A200053FD002800F0CE8030460FF6D0110D2245
:104A3000FBF74AFD002800F0C58030460FF6CC1188
:104A40000B22FBF741FD002800F0CA8030460FF62C
:104A5000C8110A22FBF738FD002800F0C18030465B
:104A60000FF6C0110C22FBF72FFD002800F0D683B3
:104A700030460FF6BC110B22FBF726FD002800F094
:104A8000CD8330460FF6B4110B22FBF71DFD002835
:104A900000F0D08346F620413046C0F600010522E2
:104AA000FBF712FD002800F0F38330460FF6981153
:104AB0000722FBF709FD002800F0D88346F6FD31F8
:104AC0003046C0F600010722FBF7FEFC002800F08C
:104AD000CD8346F62C413046C0F600010622FBF796
:104AE000F3FC002800F0F08346F604413046C0F69F
:104AF00000010722FBF7E8FC002800F0FB8346F6E4
:104B0000324116A8C0F600010822FBF7DDFC0028A0
:104B100000F0068446F60B4116A8C0F600010922F3
:104B2000FBF7D2FC002800F0118446F61A4116A8C3
:104B3000C0F600010B22FBF7C7FC40F2FC0A00287C
:104B4000C2F2000A4FF0000859D141F288302044E7
:104B5000C9F8480040F2086046F69531C2F20000FC
:104B6000C0F600011D2246E0012089F8060040F24F
:104B7000086046F64D31C9F84880C2F20000C0F620
:104B800000010D2237E000BF40F2086046F6073111
:104B900089F80680C2F20000C0F600010E222AE069
:104BA00045F003056AE600BF40F2086046F65B3157
:104BB000A9F80980C9F81840C2F20000C0F6000147
:104BC0000E2218E0012089F8090040F2086046F63C
:104BD0001631C2F20000C0F600010F220BE000BF48
:104BE00040F2086046F64031A9F80B80C2F200009E
:104BF000C0F600010C224FF0FF33FEF731FED9F86A
:104C00001C00ABEB0000B0F5FA7F10D35046FCF768
:104C10009FFE50460A21FCF763FD5046FCF77CFCE2
:104C2000C9F82C005046FCF7FBFEC9F81CB0D9F8B7
:104C300020000E9DABEB0000B0F5FA6F07D3DDE965
:104C40000C10FCF751FAC9F83800C9F820B0284612
:104C50000221FDF7D7F899F8051040F60007002962
:104C6000C4F201074FF0000619BF89F8058001243E
:104C7000B0FA80F04409FDF7D1F8D9F81410411AC0
:104C8000322926D3C9F8140038464FF48071FDF755
:104C9000B9F80138B0FA80F099F802104FEA5018CC
:104CA000414511D199F80300032804D2411C022880
:104CB00089F803100DD189F8018099F80410B8F132
:104CC000000F0DD11EE000BF012089F8028089F895
:104CD000030099F8018099F80410B8F1000F11D081
:104CE00081B940F2086046F67C31C2F20000C0F69D
:104CF00000010C224FF0FF33FEF7B2FD99F80410CB
:104D000004E000BFB8F1000F00F0B880C9F818B097
:104D10004FF0010A99F80700BAF1000F2BD099F86B
:104D2000062042B338BB31BBD9F83C1042F21072B6
:104D3000ABEB010191421ED301210BF2DC5089F84B
:104D40000810C9E90FB089F80F1028462021012268
:104D5000C9F844B0FDF75CF840F2086046F66A31E5
:104D6000C2F20000C0F6000111224FF0FF33FEF73F
:104D700077FD99F80700D9F82C1040F6FC0384F071
:104D8000010299424FF0000138BF01210A4289F81F
:104D9000048008BF00281BD0002846D038460221D6
:104DA0000122FDF735F8384604210022FDF730F8DE
:104DB000384608210022FDF72BF8022089F8080068
:104DC00099F80F00002840F0D7800122CEE000BF04
:104DD000FF2040F208678DF858000120C2F200075A
:104DE00089F80700384616A901224FF0FF33FEF775
:104DF00037FD46F6C12146F68930C0F60001C0F6FF
:104E00000000002C08BF01464FF00C02384640F667
:104E100000074FF0FF3308BF0B22C4F20107FEF773
:104E20001FFD99F807000028B8D199F8060001285D
:104E300016D1384602210122FCF7EAFF3846042148
:104E40000122FCF7E5FF384608210122FCF7E0FFCC
:104E500099F80800022868D189F808606AE000BF64
:104E600099F80800022808BF89F80860D9F84800B6
:104E7000411E59450CD2C9F848600DE04FF0000AB8
:104E800099F80700BAF1000F7FF449AF73E700BF4C
:104E900010B1002208E000BF40F21400C2F200008E
:104EA0000068421E18BF012238460821FCF7B0FFF7
:104EB00099F80900B8B999F80A00A0B9BAF1000F39
:104EC00002D000220BE000BFD9F818004DF2C0411B
:104ED000ABEB0000C0F20101884204D30122384646
:104EE0000421FCF795FF99F80B00E0B999F80C0044
:104EF000C8B9D9F83800B0B9D9F8344000212046F3
:104F0000C4F2E01100F063FF40B900212046C4F272
:104F1000D01100F055FF30B9012200E000223846E0
:104F20000221FCF775FF99F80800012808D0022833
:104F30003FF446AF99F80F00F0B1002216E000BF31
:104F4000D9F8400083450DD2D9F84400ABEB0000FE
:104F5000C82811D399F80F00C9F844B0B0FA80F00E
:104F6000420903E0002289F8082000BF28462021DA
:104F700089F80F20FCF74CFFD9F82800ABEB0000B4
:104F8000B0F5FA7FC0F0028140F21400C2F20000D6
:104F9000006801300AD0D9F810000025ABEB000002
:104FA000B0F5966F38BF012501E000BF002599F8E4
:104FB000070046F61444C0F60004B8B999F8060094
:104FC00046F62044C0F6000480B999F80B0046F676
:104FD0003A42C0F6000299F80910C00714460FF2D1
:104FE000704018BF0446002908BF14460020FEF791
:104FF00019FFFDB100200021FEF722FF40F2080555
:1050000046F62540C2F20005C0F6000029460122FE
:10501000FFF72EF900200D21FEF712FFD9F83830E6
:1050200063B316AE46F6484230462821C0F6000269
:1050300020E000BFD9F8385000200021FEF700FF23
:1050400085B340F2080546F65440C2F20005C0F6AA
:10505000000029460122FFF70BF900200D21FEF781
:10506000EFFED9F8383016AE46F63F4230462821DA
:10507000C0F60002FBF7F2F843E000BFD9F83400B5
:1050800000F002FE03460D4616AE46F6F0323046FC
:105090002821C0F60002CDE9003540F20805C2F231
:1050A00000052CE0D9F8340000F0EEFD16AE46F60F
:1050B000F03203460D4630462821C0F60002CDE905
:1050C0000035FBF7CBF840F20807C2F20007304684
:1050D00039460122FFF7CCF800200D21FEF7B0FE83
:1050E000D9F8300000F0D0FD46F6E23203460D4616
:1050F00030462821C0F60002CDE900353D46FBF7D9
:10510000ADF8304629460122FFF7B2F800201A21F7
:10511000FEF796FED0A3CFA046F66742BAF1000F85
:1051200018BF034630462821C0F60002FBF796F868
:10513000304629460122FFF79BF800202721FEF781
:105140007FFED9F82C3046F6724230462821C0F650
:105150000002FBF783F8304629460122FFF788F862
:1051600000203421FEF76CFE46F65E4230462821D0
:10517000C0F600022346FBF771F8304629460122AB
:10518000FFF776F8FFF790F8C9F828B0D9F82400AF
:1051900040F2FC0AABEB0000B0F57A7FC2F2000AE5
:1051A000FFF422ABD9F8340000F06EFD0446D9F8C4
:1051B00030000D4600F068FD99F8096099F80B3051
:1051C000D9F82C2099F8077086F0010683F00103C6
:1051D00099F806C0CDE90863CDE9004502ABCDE9F9
:1051E00005270AF1300446F6B33283E8030120466E
:1051F0004021C0F60002CDF81CC0FBF72FF80128B3
:10520000FFF6F0AA82B240F20860C2F20000214626
:105210004FF0FF33FEF724FBFFF7E4BA012089F8D3
:105220000B0040F2086046F6F921C2F20000C0F619
:105230000001A6E499F8070001280AD10E9802217E
:10524000FCF7E0FDB0B3D9F82C0040F6FB01884232
:1052500030D840F2086046F6B12189F80780C2F2E2
:105260000000C0F600010F22C5E400BF40F21401A7
:105270000120C2F20001086040F2086046F6A62153
:10528000C9F81040C2F20000C0F600010A22B2E4E0
:1052900040F21400C2F20000C0F8008040F2086042
:1052A00046F6A821C9F81040C2F20000C0F600017D
:1052B0000822A0E440F2086046F6CE21C2F20000C7
:1052C000C0F600010E2296E4012089F80C0040F699
:1052D0000000C4F2010002210022FCF799FD40F217
:1052E000086046F62631C2F20000C0F600010B222B
:1052F00081E400BF012089F80C0040F60000C4F2F0
:10530000010002210122FCF783FD40F2086046F60D
:10531000DD21C2F20000C0F600010C222AE000BF2D
:10532000012089F80A0040F60000C4F201000421BF
:105330000022FCF76DFD40F2086046F63231C2F201
:105340000000C0F600010D2214E000BF012089F822
:105350000A0040F60000C4F2010004210122FCF71B
:1053600057FD40F2086046F6EA21C2F20000C0F69E
:1053700000010E224FF0FF33FEF772FA40F2FC0AF2
:10538000C2F2000A4FF00008D9F81C00ABEB000095
:10539000B0F5FA7FBFF43AACFFF749BC4C4F434B32
:1053A000444F574E5F4F4E004C4F434B444F574E68
:1053B0004F4E00004C4F434B444F574E5F4F4646B5
:1053C000000000004C4F434B444F574E4F464600A1
:1053D0004F43435550414E43595F4F4E000000002C
:1053E0004F43435550414E43594F4E004F43435551
:1053F00050414E43595F4F46460000004F434355CE
:1054000050414E43594F464600000000434C494D21
:105410004154455F4F4E0000434C494D4154454F68
:105420004E000000434C494D4154455F4F464600F5
:10543000434C494D4154454F46460000434C45417D
:1054400052414C41524D0000554E4C4F434B0000D1
:105450004D414E00594553004E4F00005FEA400C4D
:1054600008BF91F0000F4FEA8C234FEAC12243EAB4
:1054700051514FEA1C5018BF00F5F0404FEA300080
:1054800018BF41F000415FEA6C5C00F02980BCF17C
:10549000FF3F08BF40F080407047130C06BF120466
:1054A0004FF0100C4FF0000C130E04BF12020CF161
:1054B000080C130F04BF12010CF1040C930F04BF6E
:1054C00092000CF1020CD30F04BF52000CF1010C3E
:1054D00011464FF00002A0F11F00A0EB0C00704736
:1054E00011F0004F08BF704731F000413FF4D5AFD5
:1054F0000B0C06BF09044FF0100C4FF0000C0B0E04
:1055000004BF09020CF1080C0B0F04BF09010CF1D8
:10551000040C8B0F04BF89000CF1020CCB0F04BFED
:1055200049000CF1010CCCF1200322FA03F341EA0B
:10553000030102FA0CF2A0EB0C0000F1010070472D
:1055400023F07F4720F07F4C80EA030000F000400A
:10555000ACEB070303F57C5303F1FF032DE980490E
:1055600009B44FEA144324EA03484FEA154B25EAED
:105570000B4E0FF2042606EB13273E7803FB06675B
:10558000C7F5000707FB06F64FEAD64606F1020606
:105590004FEA543707FB066CCCF1005C4FEA1C471E
:1055A0002CEA074C0CFB06F507FB06F404EB15464A
:1055B0004FEA961649085FEA320234BF00204FF0E6
:1055C00000404FEAD13706FB07FC4FEA1C4C0CFBAE
:1055D0000BF7D21B03FB0CF761EB07010CFB0EF77B
:1055E000B0EB074072EB17420CFB08F734BFA2EB9D
:1055F0000742B2EB074261EB17414FEA0C444FEA16
:10560000910706FB07FC4FEA1C4C0CFB0BF7B0EBB9
:10561000C74072EB573203FB0CF734BFA2EBC74213
:10562000B2EBC74261EB57310CFB0EF7B0EBC70092
:1056300072EB57720CFB08F734BFA2EBC702B2EB58
:10564000C70261EB57714FEA816141EA92114FEA5B
:10565000826242EA90124FEA806004EBCC04039F1E
:105660004FEAD13706FB07FC4FEA1C4C0CFB0BF74B
:10567000D21B03FB0CF761EB07010CFB0EF7B0EB41
:10568000074072EB17420CFB08F734BFA2EB07424E
:10569000B2EB074261EB17414FEA8C5504EB9C24B7
:1056A0004FEA910706FB07FC4FEA1C4C0CFB0BF77B
:1056B000B0EBC74072EB573203FB0CF734BFA2EBE1
:1056C000C742B2EBC74261EB57310CFB0EF7B0EBB0
:1056D000C70072EB57720CFB08F734BFA2EBC7028E
:1056E000B2EBC70261EB57714FEA816141EA921157
:1056F0004FEA826242EA90124FEA806015EB4C2535
:1057000044F100044FEAD13706FB07FC4FEA1C4C7A
:105710000CFB0BF7D21B03FB0CF761EB07010CFB37
:105720000EF7B0EB074072EB17420CFB08F734BFE3
:10573000A2EB0742B2EB074261EB17414FEA81311E
:1057400041EA92414FEA823242EA90424FEA803087
:105750004FEA0C7615EB1C1544F1000448EA0343AC
:105760004EEA0B484FF0000EB2EB080C71EB03074A
:1057700024BF624639464EEB0E0E4FF0000B001868
:10578000524149414BEB0B0BB2EB080C71EB030799
:105790007BF1000B24BF624639464EEB0E0E4FF0F4
:1057A000000B0018524149414BEB0B0BB2EB080CBC
:1057B00071EB03077BF1000B24BF624639464EEBC9
:1057C0000E0E51EA020718BF46F0010616EB0E76E0
:1057D00055F1000254F1000103D5BDE88901BDE88F
:1057E0000088BDE88901BDE80048B619524141EB87
:1057F0000101A3F10103704780807F7E7D7C7B7A6D
:105800007978777676757473727171706F6E6E6D6C
:105810006C6C6B6A6A696868676666656464636312
:1058200062616160605F5F5E5E5D5D5C5C5B5B5A98
:105830005A59595858575756565555555454535305
:1058400052525251515050504F4F4F4E4E4D4D4D60
:105850004C4C4C4B4B4B4A4A4A49494948484847AB
:1058600047474746464645454544444444434343E9
:1058700043424242424141419C46002B30D4770092
:105880002BD04FEA37071CB503B44FF010004FF090
:105890001001BAF1000F06D0BCF1000FDCBF40F0E0
:1058A000080040F008014FF000000FBCBDE81040B8
:1058B0000BF1010BBBF1010F08BF5FEA170722BF15
:1058C00012F1010211F101014FF0004143F1000317
:1058D00000F0004043EA00007047F9D35708D0E7D2
:1058E00046EA06464FEA164613F1400F1FDD13F154
:1058F000200FDFBF16430A46002120335B42BED093
:10590000C3F1200746EA06464FEA164602FA07F7B1
:1059100046EA070622FA03F2C3F1200701FA07F765
:1059200042EA070221FA03F14FF00003A7E746EA33
:10593000020646EA06464FEA164646EA0106BCBF9C
:1059400046EA0646360C4FF000034FF000024FF0D7
:10595000000194E72DE9804C70B49A46934691E893
:10596000380007C831EA400C48BF34EA430C03D57D
:10597000FFF7E6FDFFF780FFF0BCBDE8008C2DE9E6
:10598000804C70B49A46934691E8380007C810F0EE
:10599000804F08BF13F0804F03D100F005F8FFF7E8
:1059A0006BFFF0BCBDE8008C20F07F4723F07F4CFC
:1059B00080EA030000F0004007EB0C03A3F57C53E2
:1059C000A3F1FE0392F0000F00F0B38095F0000FFA
:1059D00000F077802DE901494FEA114021EA0048A3
:1059E0004FEA144624EA064700FB06FC08FB06F6CD
:1059F00007FB08F818EB06484CEB164C00FB07F7C2
:105A000018EB07484CEB17404FEA124B22EA0B4EBB
:105A10004FEA154625EA06470BFB06FC0EFB06F689
:105A200007FB0EFE1EEB064E4CEB164C0BFB07F76E
:105A30001EEB074E4CEB174B18EB0B0840F1000028
:105A400018EB0E0B58EB000840F100008F1A4FF0D6
:105A500000014FF000063CBFC943661B14BFB5EB05
:105A6000040C00213CBFC943F61B4FEA174427EA48
:105A700004454FEA1C472CEA074C04FB076205FB70
:105A800007F70CFB05F616EB074642EB174204FB43
:105A90000CFC16EB0C4642EB1C421BEB060658EBCB
:105AA000020241414EEA8E0E46EA9E0601D5BDE84D
:105AB0000189B619524141EB0101A3F10103BDE88F
:105AC00001894FEA144524EA05464FEA114721EAC5
:105AD000074C05FB07F406FB07F70CFB06F111EB7F
